:020000040800F2
:100000000000012025100008B5030008B703000810
:10001000B9030008BB030008BD030008000000008E
:10002000000000000000000000000000BF03000806
:10003000C103000800000000C3030008C503000856
:100040006D1000086D1000086D1000086D1000089C
:100050006D1000086D1000086D1000086D1000088C
:100060006D1000086D1000086D1000086D1000087C
:100070006D1000086D1000086D1000086D1000086C
:100080006D1000086D1000086D1000086D1000085C
:100090006D1000086D1000086D1000086D1000084C
:1000A0006D1000086D1000086D1000086D1000083C
:1000B0006D1000086D1000086D1000086D1000082C
:1000C0006D1000086D1000086D1000086D1000081C
:1000D0006D1000086D1000086D1000086D1000080C
:1000E0006D1000086D1000086D1000086D100008FC
:1000F0006D1000086D1000086D1000086D100008EC
:100100006D1000086D1000086D1000086D100008DB
:100110006D1000086D1000086D1000086D100008CB
:100120006D1000086D1000086D1000086D100008BB
:1001300000000000000000000000000000000000BF
:1001400000000000000000000000000000000000AF
:10015000000000000000000000000000000000009F
:10016000000000000000000000000000000000008F
:10017000000000000000000000000000000000007F
:10018000000000000000000000000000000000006F
:10019000000000000000000000000000000000005F
:1001A000000000000000000000000000000000004F
:1001B000000000000000000000000000000000003F
:1001C000000000000000000000000000000000002F
:1001D000000000000000000000000000000000001F
:0401E0005FF8E0F1F3
:1001E40010B5054C237833B9044B13B10448AFF36D
:1001F40000800123237010BD3C0400200000000097
:100204003C12000808B5034B1BB103490348AFF384
:10021400008008BD00000000400400203C120008DB
:100224002DE9F04389B000240494059406940794BE
:10023400274B9A6942F010029A619A6902F01002FF
:100244000192019A9A6942F004029A619A6902F051
:1002540004020292029A9A6942F008029A619B6926
:1002640003F008030393039BDFF8689022460121FF
:10027400484600F0C4FBDFF860802246FE21404679
:1002840000F0BDFB154F22462A21384600F0B7FB8B
:1002940001250495059506940326079604A9484666
:1002A40000F086FAFE23049305950694079604A9A4
:1002B400404600F07DFA2A23049305950694079698
:1002C40004A9384600F074FA09B0BDE8F08300BF11
:1002D400001002400010014000080140000C0140E1
:1002E40072B6FEE700B591B02822002106A800F0FE
:1002F400E1FE0023019302930393049305930122E7
:1003040006924FF4803307930A9202220D920E93C1
:100314004FF4E0130F9306A800F08EFB80B90F236F
:10032400019302210291002303934FF4806204920B
:10033400059301A800F0BEFD20B911B05DF804FBDF
:10034400FFF7CEFFFFF7CCFF08B500F09BF9FFF7EE
:10035400C9FFFFF765FF00F009F9034A01210220F4
:1003640000F046F9F9E700BF5412000882B00E4BC2
:100374009A6942F001029A619A6902F001020092BC
:10038400009ADA6942F08052DA61DB6903F0805343
:100394000193019B054A536823F0E06343F0007323
:1003A400536002B0704700BF0010024000000140DB
:1003B400FEE7FEE7FEE7FEE7FEE77047704770479B
:1003C40008B500F071F908BD7047000038B5134C4A
:1003D40000220221204600F012FB012208212046BF
:1003E40000F00DFB0122FF210D4800F008FB0B4D2E
:1003F40001222021284600F002FB052000F066F9C6
:100404008021074800F0F4FA0446002220212846FF
:1004140000F0F5FA14F0800FE9D138BD000C01406A
:100424000008014010B5044610F0800F3DD00122B1
:100434008021364800F0E3FA14F0400F3BD001224B
:100444004021324800F0DBFA14F0200F39D00122A9
:1004540020212E4800F0D3FA14F0100F37D00122D7
:1004640010212A4800F0CBFA14F0080F35D00122ED
:100474000821264800F0C3FA14F0040F33D00122F7
:100484000421224800F0BBFA14F0020F31D00122FB
:1004940002211E4800F0B3FA14F0010F2FD00122FC
:1004A40011461A4800F0ABFA10BD0022802117480B
:1004B40000F0A5FAC0E700224021144800F09FFA9A
:1004C400C2E700222021114800F099FAC4E7002273
:1004D40010210E4800F093FAC6E7002208210B48C9
:1004E40000F08DFAC8E700220421084800F087FADA
:1004F400CAE700220221054800F081FACCE7002275
:100504000121024800F07BFACEE700BF0008014059
:1005140038B50546FFF75AFF124C00220221204647
:1005240000F06DFA00220821204600F068FA052048
:1005340000F0CCF80C4B188820F0FF0000B22843E0
:1005440080B21880FFF76EFF01222021204600F0C0
:1005540056FA0A2000F0BAF800222021204600F0C2
:100564004EFA38BD000C01405804002008B5302074
:10057400FFF7CEFF0A2000F0A9F80C20FFF7C8FF10
:100584000A2000F0A3F80120FFF7C2FF0A2000F0C0
:100594009DF808BD38B50546FFF718FF124C012237
:1005A4000221204600F02BFA00220821204600F008
:1005B40026FA052000F08AF80C4B188820F0FF007A
:1005C40000B2284380B21880FFF72CFF01222021BB
:1005D400204600F014FA0A2000F078F800222021C6
:1005E400204600F00CFA38BD000C014058040020ED
:1005F40010B51446013803281AD8DFE800F00207C2
:100604000C117F31C8B2FFF783FF11E07139C8B212
:10061400FFF77EFF0CE07939C8B2FFF779FF07E0F6
:100624006939C8B2FFF774FF02E0FFF7B3FF013482
:1006340020780028F9D110BD10B504460E4B187867
:100644004FF47A73B3FBF0F30C4A1068B0FBF3F089
:1006540000F09AF868B90F2C01D901200AE00022B1
:1006640021464FF0FF3000F057F8054B1C60002086
:1006740000E0012010BD00BF0400002000000020A5
:100684000800002008B5074A136843F010031360FC
:10069400032000F02FF80020FFF7CEFFFFF766FEDF
:1006A400002008BD00200240034A1168034B1B7858
:1006B4000B441360704700BF5C040020040000205A
:1006C400014B1868704700BF5C04002038B504462D
:1006D400FFF7F6FF0546B4F1FF3F02D0044B1B7849
:1006E4001C44FFF7EDFF401BA042FAD338BD00BF06
:1006F40004000020074AD36823F4E0631B041B0CA6
:10070400000200F4E060034343F0BF6343F40033AA
:10071400D360704700ED00E000B5194BDB68C3F30C
:100724000223C3F1070CBCF1040F28BF4FF0040CE3
:1007340003F1040EBEF1060F18D9033B4FF0FF3E40
:100744000EFA0CFC21EA0C0199400EFA03F322EA9A
:100754000303194300280BDB0901C9B200F160400F
:1007640000F5614080F800135DF804FB0023E5E721
:1007740000F00F000901C9B2024B1954F4E700BF9D
:1007840000ED00E014ED00E00138B0F1807F0BD201
:100794004FF0E0235861054AF02182F8231000202D
:1007A400986107221A6170470120704700ED00E04C
:1007B40070B582B00024A446B0E0874DAA4210D0A0
:1007C40007D9864DAA420CD005F58035AA4208D037
:1007D40013E0A5F58015AA4203D005F57025AA42B9
:1007E40007D18A68002A62D0012A5BD043610824B9
:1007F40003E0A5F58015AA42F3D0BEF1FF0F58D847
:100804000646BEF1FF0F56D84FEA8C0233680F2517
:10081400954023EA050304FA02F2134333604B685C
:1008240013F0805F78D06E4B9A6942F001029A61AE
:100834009B6903F001030193019B4FEA9C02951C01
:10084400684B53F825600CF003039D000F23AB4065
:1008540026EA0306644B984233D003F5806398423A
:1008640000F0988003F58063984200F0958003F5CA
:100874008063984200F0928003F58063984200F010
:100884008F8003F58063984219D006231AE0CC6860
:10089400B3E7CC680434B0E7CC680834ADE7CC687F
:1008A4000C34AAE703610824A7E70024A5E704247D
:1008B400A3E7061DA5E7ACF108029200A6E705230D
:1008C40000E00023AB4033430232464D45F822306A
:1008D4004B6813F4803F65D0444A136843EA0E031F
:1008E40013604B6813F4003F62D0404A536843EAF4
:1008F4000E0353604B6813F4801F5FD03B4A936828
:1009040043EA0E0393604B6813F4001F5CD0374A2C
:10091400D36843EA0E03D3600CF1010C0A6832FA7F
:100924000CF357D0012303FA0CF302EA030E33EA63
:100934000202F1D14A68122A3FF63FAF122A3FF66B
:100944005CAF01A555F822F0E707000893080008FA
:100954009D080008AF080008FF070008FF0700080B
:10096400FF070008FF070008FF070008FF0700084B
:10097400FF070008FF070008FF070008FF0700083B
:10098400FF070008FF070008FF0700089708000892
:10099400A3080008012395E7022393E7032391E7C3
:1009A40004238FE7114A136823EA0E03136098E7C0
:1009B4000E4A536823EA0E0353609BE70B4A93687D
:1009C40023EA0E0393609EE7084AD36823EA0E03E2
:1009D400D360A1E702B070BD000022100000311006
:1009E40000100240000001400008014000040140E2
:1009F4008368194201D001207047002070470AB172
:100A040001617047090401617047000082B0084B1E
:100A14001B68084AA2FB03235B0A00FB03F3019350
:100A240000BF019B5A1E0192002BF9D102B07047FE
:100A340000000020D34D6210002800F0F18170B551
:100A440082B00446036813F0010F2CD0994B5B6805
:100A540003F00C03042B1DD0964B5B6803F00C03CE
:100A6400082B12D06368B3F5803F41D0002B55D1D9
:100A740003F1804303F504331A6822F480321A60C8
:100A84001A6822F480221A6037E08A4B5B6813F4F8
:100A9400803FE7D0874B1B6813F4003F03D06368A3
:100AA400002B00F0BF81236813F0020F75D0814B37
:100AB4005B6813F00C0F5FD07E4B5B6803F00C0394
:100AC400082B54D02369002B00F08A807A4B012232
:100AD4001A60FFF7F5FD0546764B1B6813F0020F0D
:100AE40075D1FFF7EDFD401B0228F5D903209EE1E7
:100AF400704A136843F480331360636843B3FFF7A9
:100B0400DFFD05466B4B1B6813F4003FCBD1FFF7A9
:100B1400D7FD401B6428F5D9032088E1B3F5A02F45
:100B240009D0644B1A6822F480321A601A6822F4DD
:100B340080221A60E1E703F18043A3F53C331A688D
:100B440042F480221A601A6842F480321A60D4E7B0
:100B5400FFF7B6FD0546574B1B6813F4003FA2D0C0
:100B6400FFF7AEFD401B6428F5D903205FE1514B2C
:100B74005B6813F4803FA5D14E4B1B6813F0020F42
:100B840003D02369012B40F04F814A4A136823F0B4
:100B9400F803616943EAC1031360236813F0080F83
:100BA40033D0A369002B5CD0434B0122C3F88024CB
:100BB400FFF786FD05463F4B5B6A13F0020F21D118
:100BC400FFF77EFD401B0228F5D903202FE1394AA7
:100BD400136823F0F803616943EAC1031360DCE797
:100BE400354B00221A60FFF76BFD0546314B1B683D
:100BF40013F0020FD1D0FFF763FD401B0228F5D993
:100C0400032014E10120FFF701FF236813F0040F10
:100C140000F09680274BDB6913F0805F34D1254BBD
:100C2400DA6942F08052DA61DB6903F080530193A0
:100C3400019B0125214B1B6813F4807F26D0E368B8
:100C4400012B3DD0002B53D103F1804303F5043332
:100C54001A6A22F001021A621A6A22F004021A6263
:100C640033E0154B0022C3F88024FFF729FD054625
:100C7400104B5B6A13F0020FC7D0FFF721FD401B36
:100C84000228F5D90320D2E00025D3E70B4A1368E4
:100C940043F480731360FFF713FD0646074B1B688C
:100CA40013F4807FCBD1FFF70BFD801B6428F5D9AB
:100CB4000320BCE0001002400000424200700040EB
:100CC4005F4A136A43F001031362E36833B3FFF727
:100CD400F7FC06465A4B1B6A13F0020F2FD1FFF79D
:100CE400EFFC801B41F288339842F3D903209EE045
:100CF400052B09D0524B1A6A22F001021A621A6AB1
:100D040022F004021A62E0E74D4B1A6A42F0040230
:100D14001A621A6A42F001021A62D6E7FFF7D0FC9F
:100D24000646474B1B6A13F0020F08D0FFF7C8FCB6
:100D3400801B41F288339842F3D9032077E0E5B968
:100D4400E369002B72D03E4A526802F00C02082A72
:100D540056D0022B17D03B4B00221A66FFF7B0FC8B
:100D64000446374B1B6813F0007F47D0FFF7A8FCFD
:100D7400001B0228F5D9032059E0314AD36923F036
:100D84008053D361DCE72F4B00221A66FFF798FCEF
:100D940005462B4B1B6813F0007F06D0FFF790FC31
:100DA400401B0228F5D9032041E0236AB3F5803FB4
:100DB4001AD023494B6823F47413226A606A0243ED
:100DC40013434B601F4B01221A66FFF779FC04465C
:100DD4001B4B1B6813F0007F0ED1FFF771FC001B47
:100DE4000228F5D9032022E0154A536823F400337E
:100DF400A1680B435360DCE7002018E0002016E0F4
:100E0400012B16D00E4B5B6803F48031226A9142A9
:100E140011D103F47013626A93420ED1002006E0EC
:100E240001207047012002E0012000E0002002B010
:100E340070BD0120FBE70120F9E70120F7E700BFBF
:100E4400001002400000424286B0164B0FCB0DF159
:100E5400180C0CE90F0040F20123ADF80430124BDA
:100E64005B6803F00C02082A02D0104806B07047F1
:100E7400C3F38342624412F8100C13F4803F0CD085
:100E8400094B5B68C3F34043634413F8143C074ABB
:100E940002FB00F0B0FBF3F0E8E7054B03FB00F0C6
:100EA400E4E700BF681200080010024000127A0054
:100EB40000093D00002800F0A08070B50D460446EE
:100EC400524B1B6803F007038B420BD24F4A136843
:100ED40023F007030B431360136803F007038B42EB
:100EE40040F08D80236813F0020F17D013F0040F25
:100EF40004D0474A536843F4E0635360236813F013
:100F0400080F04D0424A536843F460535360404A84
:100F1400536823F0F003A1680B435360236813F074
:100F2400010F31D06368012B20D0022B25D0384A21
:100F3400126812F0020F64D035494A6822F00302A5
:100F440013434B60FFF7BCFB0646314B5B6803F071
:100F54000C036268B3EB820F16D0FFF7B1FB801B62
:100F640041F288339842F0D9032045E0284A1268B8
:100F740012F4003FE0D101203EE0254A126812F04D
:100F8400007FD9D1012037E0204B1B6803F0070311
:100F9400AB420AD91D4A136823F007032B4313609D
:100FA400136803F00703AB422DD1236813F0040F39
:100FB40006D0174A536823F4E063E1680B43536097
:100FC400236813F0080F07D0114A536823F46053C1
:100FD400216943EAC1035360FFF736FF0C4B5B689A
:100FE400C3F303130B4AD35CD8400B4B18600B4B71
:100FF4001868FFF721FB002070BD01207047012015
:10100400FAE70120F8E70120F6E700BF00200240DC
:1010140000100240581200080000002008000020C0
:10102400002103E00B4B5B58435004310A480B4B3F
:1010340042189A42F6D30A4A02E0002342F8043BDB
:10104400084B9A42F9D3FFF7BFF900F00FF8FFF706
:101054007BF970478C120008000000203C0400203B
:101064003C04002064040020FEE7000070B50D4E2F
:101074000D4D761BB61006D0002455F8043B013400
:101084009847A642F9D1094E094D00F0D5F8761BD0
:10109400B61006D0002455F8043B01349847A64204
:1010A400F9D170BD8012000880120008881200086F
:1010B40080120008830730B548D0541E002A3FD060
:1010C4000346CAB201E0013C3AD303F8012B9D0761
:1010D400F9D1032C2DD9CDB245EA05250F2C45EACB
:1010E400054536D9A4F1100222F00F0C03F1200EAD
:1010F400E6444FEA121C03F1100242E9045542E9A6
:10110400025510327245F8D10CF1010214F00C0FA3
:1011140003EB021204F00F0C13D0ACF1040323F020
:1011240003030433134442F8045B9342FBD10CF0F1
:1011340003042CB1CAB21C4403F8012B9C42FBD11A
:1011440030BD64461346002CF4D1F9E70346144637
:10115400BFE71A46A446E0E7024B13B1024800F089
:1011640005B87047000000007D1100080023014607
:101174001A46184600F01AB838B5084B084D5B1BE0
:101184009C1007D0043B1D44013C55F80439984792
:10119400002CF9D1BDE8384000F054B88C12000896
:1011A40088120008704700BF704700BF2DE9F04760
:1011B400DFF87CA00646DAF8000098460F46914610
:1011C400FFF7F0FF1B4B1B68D3F8484124B3656855
:1011D4001F2D26DC5EB96B1C0235DAF80000636053
:1011E40044F82570FFF7E0FF0020BDE8F0870123F5
:1011F40004EB8501C1F88890D4F88821AB401A43E8
:10120400022EC4F88821C1F80881E4D1D4F88C21D5
:101214001343C4F88C31DEE703F5A674C3F84841E0
:10122400D5E7DAF80000FFF7BFFF4FF0FF30DCE747
:10123400380400207C120008F8B500BFF8BC08BCD4
:101244009E467047F8B500BFF8BC08BC9E46704780
:101254003737000000000000000000000102030412
:101264000607080902030405060708090A0B0C0D02
:0C1274000E0F1010000000001000002001
:081280005D11000809020008DD
:04128800E501000874
:10128C000024F40001000000100000000000000029
:10129C0000000000FC02002064030020CC030020AE
:1012AC000000000000000000000000000000000032
:1012BC000000000000000000000000000000000022
:1012CC000000000000000000000000000000000012
:1012DC000000000000000000000000000000000002
:1012EC0000000000000000000000000000000000F2
:1012FC0000000000000000000000000000000000E2
:10130C0000000000000000000000000000000000D1
:10131C0000000000000000000000000000000000C1
:10132C0000000000000000000000000000000000B1
:10133C0000000000000000000100000000000000A0
:10134C000E33CDAB34126DE6ECDE05000B00000065
:10135C000000000000000000000000000000000081
:10136C000000000000000000000000000000000071
:10137C000000000000000000000000000000000061
:10138C000000000000000000000000000000000051
:0C16BC000000000000000000600400209E
:0400000508001025BA
:00000001FF
